{
  "contractName": "ItemManager",
  "abi": [
    {
      "anonymous": false,
      "inputs": [
        {
          "indexed": false,
          "internalType": "uint256",
          "name": "_itemIndex",
          "type": "uint256"
        },
        {
          "indexed": false,
          "internalType": "uint256",
          "name": "_step",
          "type": "uint256"
        },
        {
          "indexed": false,
          "internalType": "address",
          "name": "_itemAddress",
          "type": "address"
        }
      ],
      "name": "SupplyChainStep",
      "type": "event"
    },
    {
      "inputs": [],
      "name": "_owner",
      "outputs": [
        {
          "internalType": "address",
          "name": "",
          "type": "address"
        }
      ],
      "stateMutability": "view",
      "type": "function",
      "constant": true
    },
    {
      "inputs": [],
      "name": "isOwner",
      "outputs": [
        {
          "internalType": "bool",
          "name": "",
          "type": "bool"
        }
      ],
      "stateMutability": "view",
      "type": "function",
      "constant": true
    },
    {
      "inputs": [
        {
          "internalType": "uint256",
          "name": "",
          "type": "uint256"
        }
      ],
      "name": "items",
      "outputs": [
        {
          "internalType": "contract Item",
          "name": "_item",
          "type": "address"
        },
        {
          "internalType": "string",
          "name": "_identifier",
          "type": "string"
        },
        {
          "internalType": "uint256",
          "name": "_itemPrice",
          "type": "uint256"
        },
        {
          "internalType": "enum ItemManager.SupplyChainState",
          "name": "_state",
          "type": "uint8"
        }
      ],
      "stateMutability": "view",
      "type": "function",
      "constant": true
    },
    {
      "inputs": [
        {
          "internalType": "string",
          "name": "_identifier",
          "type": "string"
        },
        {
          "internalType": "uint256",
          "name": "_itemPrice",
          "type": "uint256"
        }
      ],
      "name": "createItem",
      "outputs": [],
      "stateMutability": "nonpayable",
      "type": "function"
    },
    {
      "inputs": [
        {
          "internalType": "uint256",
          "name": "_itemIndex",
          "type": "uint256"
        }
      ],
      "name": "triggerPayment",
      "outputs": [],
      "stateMutability": "payable",
      "type": "function",
      "payable": true
    },
    {
      "inputs": [
        {
          "internalType": "uint256",
          "name": "_itemIndex",
          "type": "uint256"
        }
      ],
      "name": "triggerDelivery",
      "outputs": [],
      "stateMutability": "nonpayable",
      "type": "function"
    }
  ],
  "bytecode": "0x608060405234801561001057600080fd5b50336000806101000a81548173ffffffffffffffffffffffffffffffffffffffff021916908373ffffffffffffffffffffffffffffffffffffffff1602179055506118bf806100606000396000f3fe6080604052600436106200005c5760003560e01c8063800fb83f14620000615780638c55174214620000815780638f32d59b14620000af578063b2bdfa7b14620000df578063bfb231d2146200010f578063cd31831e1462000156575b600080fd5b6200007f6004803603810190620000799190620009b5565b62000184565b005b3480156200008e57600080fd5b50620000ad6004803603810190620000a7919062000b49565b62000363565b005b348015620000bc57600080fd5b50620000c762000571565b604051620000d6919062000bcc565b60405180910390f35b348015620000ec57600080fd5b50620000f7620005c8565b60405162000106919062000c2e565b60405180910390f35b3480156200011c57600080fd5b506200013b6004803603810190620001359190620009b5565b620005ec565b6040516200014d949392919062000dda565b60405180910390f35b3480156200016357600080fd5b506200018260048036038101906200017c9190620009b5565b620006d9565b005b34600160008381526020019081526020016000206002015414620001df576040517f08c379a0000000000000000000000000000000000000000000000000000000008152600401620001d69062000e7e565b60405180910390fd5b60006002811115620001f657620001f562000d5a565b5b6001600083815260200190815260200160002060030160009054906101000a900460ff1660028111156200022f576200022e62000d5a565b5b1462000272576040517f08c379a0000000000000000000000000000000000000000000000000000000008152600401620002699062000ef0565b60405180910390fd5b600180600083815260200190815260200160002060030160006101000a81548160ff02191690836002811115620002ae57620002ad62000d5a565b5b02179055507fa4035636e99f06b7651a604c1019fa4e8779fe68ef27eeb74dff2de348f6199b8160016000600254815260200190815260200160002060030160009054906101000a900460ff16600281111562000310576200030f62000d5a565b5b6001600085815260200190815260200160002060000160009054906101000a900473ffffffffffffffffffffffffffffffffffffffff16604051620003589392919062000f12565b60405180910390a150565b6200036d62000571565b620003af576040517f08c379a0000000000000000000000000000000000000000000000000000000008152600401620003a69062000f9f565b60405180910390fd5b60003082600254604051620003c490620008a8565b620003d29392919062000ffa565b604051809103906000f080158015620003ef573d6000803e3d6000fd5b5090508060016000600254815260200190815260200160002060000160006101000a81548173ffffffffffffffffffffffffffffffffffffffff021916908373ffffffffffffffffffffffffffffffffffffffff16021790555082600160006002548152602001908152602001600020600101908051906020019062000477929190620008b6565b508160016000600254815260200190815260200160002060020181905550600060016000600254815260200190815260200160002060030160006101000a81548160ff02191690836002811115620004d457620004d362000d5a565b5b02179055507fa4035636e99f06b7651a604c1019fa4e8779fe68ef27eeb74dff2de348f6199b60025460016000600254815260200190815260200160002060030160009054906101000a900460ff16600281111562000538576200053762000d5a565b5b836040516200054a9392919062000f12565b60405180910390a160026000815480929190620005679062001066565b9190505550505050565b60008060009054906101000a900473ffffffffffffffffffffffffffffffffffffffff1673ffffffffffffffffffffffffffffffffffffffff163373ffffffffffffffffffffffffffffffffffffffff1614905090565b60008054906101000a900473ffffffffffffffffffffffffffffffffffffffff1681565b60016020528060005260406000206000915090508060000160009054906101000a900473ffffffffffffffffffffffffffffffffffffffff16908060010180546200063790620010e2565b80601f01602080910402602001604051908101604052809291908181526020018280546200066590620010e2565b8015620006b65780601f106200068a57610100808354040283529160200191620006b6565b820191906000526020600020905b8154815290600101906020018083116200069857829003601f168201915b5050505050908060020154908060030160009054906101000a900460ff16905084565b620006e362000571565b62000725576040517f08c379a00000000000000000000000000000000000000000000000000000000081526004016200071c9062000f9f565b60405180910390fd5b600160028111156200073c576200073b62000d5a565b5b6001600083815260200190815260200160002060030160009054906101000a900460ff16600281111562000775576200077462000d5a565b5b14620007b8576040517f08c379a0000000000000000000000000000000000000000000000000000000008152600401620007af9062000ef0565b60405180910390fd5b60026001600083815260200190815260200160002060030160006101000a81548160ff02191690836002811115620007f557620007f462000d5a565b5b02179055507fa4035636e99f06b7651a604c1019fa4e8779fe68ef27eeb74dff2de348f6199b816001600084815260200190815260200160002060030160009054906101000a900460ff16600281111562000855576200085462000d5a565b5b6001600085815260200190815260200160002060000160009054906101000a900473ffffffffffffffffffffffffffffffffffffffff166040516200089d9392919062000f12565b60405180910390a150565b610772806200111883390190565b828054620008c490620010e2565b90600052602060002090601f016020900481019282620008e8576000855562000934565b82601f106200090357805160ff191683800117855562000934565b8280016001018555821562000934579182015b828111156200093357825182559160200191906001019062000916565b5b50905062000943919062000947565b5090565b5b808211156200096257600081600090555060010162000948565b5090565b6000604051905090565b600080fd5b600080fd5b6000819050919050565b6200098f816200097a565b81146200099b57600080fd5b50565b600081359050620009af8162000984565b92915050565b600060208284031215620009ce57620009cd62000970565b5b6000620009de848285016200099e565b91505092915050565b600080fd5b600080fd5b6000601f19601f8301169050919050565b7f4e487b7100000000000000000000000000000000000000000000000000000000600052604160045260246000fd5b62000a3c82620009f1565b810181811067ffffffffffffffff8211171562000a5e5762000a5d62000a02565b5b80604052505050565b600062000a7362000966565b905062000a81828262000a31565b919050565b600067ffffffffffffffff82111562000aa45762000aa362000a02565b5b62000aaf82620009f1565b9050602081019050919050565b82818337600083830152505050565b600062000ae262000adc8462000a86565b62000a67565b90508281526020810184848401111562000b015762000b00620009ec565b5b62000b0e84828562000abc565b509392505050565b600082601f83011262000b2e5762000b2d620009e7565b5b813562000b4084826020860162000acb565b91505092915050565b6000806040838503121562000b635762000b6262000970565b5b600083013567ffffffffffffffff81111562000b845762000b8362000975565b5b62000b928582860162000b16565b925050602062000ba5858286016200099e565b9150509250929050565b60008115159050919050565b62000bc68162000baf565b82525050565b600060208201905062000be3600083018462000bbb565b92915050565b600073ffffffffffffffffffffffffffffffffffffffff82169050919050565b600062000c168262000be9565b9050919050565b62000c288162000c09565b82525050565b600060208201905062000c45600083018462000c1d565b92915050565b6000819050919050565b600062000c7662000c7062000c6a8462000be9565b62000c4b565b62000be9565b9050919050565b600062000c8a8262000c55565b9050919050565b600062000c9e8262000c7d565b9050919050565b62000cb08162000c91565b82525050565b600081519050919050565b600082825260208201905092915050565b60005b8381101562000cf257808201518184015260208101905062000cd5565b8381111562000d02576000848401525b50505050565b600062000d158262000cb6565b62000d21818562000cc1565b935062000d3381856020860162000cd2565b62000d3e81620009f1565b840191505092915050565b62000d54816200097a565b82525050565b7f4e487b7100000000000000000000000000000000000000000000000000000000600052602160045260246000fd5b6003811062000d9d5762000d9c62000d5a565b5b50565b600081905062000db08262000d89565b919050565b600062000dc28262000da0565b9050919050565b62000dd48162000db5565b82525050565b600060808201905062000df1600083018762000ca5565b818103602083015262000e05818662000d08565b905062000e16604083018562000d49565b62000e25606083018462000dc9565b95945050505050565b7f4f6e6c792066756c6c207061796d656e74732061636365707465640000000000600082015250565b600062000e66601b8362000cc1565b915062000e738262000e2e565b602082019050919050565b6000602082019050818103600083015262000e998162000e57565b9050919050565b7f4974656d206973206675727468657220696e2074686520636861696e00000000600082015250565b600062000ed8601c8362000cc1565b915062000ee58262000ea0565b602082019050919050565b6000602082019050818103600083015262000f0b8162000ec9565b9050919050565b600060608201905062000f29600083018662000d49565b62000f38602083018562000d49565b62000f47604083018462000c1d565b949350505050565b7f596f7520617265206e6f7420746865206f776e65720000000000000000000000600082015250565b600062000f8760158362000cc1565b915062000f948262000f4f565b602082019050919050565b6000602082019050818103600083015262000fba8162000f78565b9050919050565b600062000fce8262000c55565b9050919050565b600062000fe28262000fc1565b9050919050565b62000ff48162000fd5565b82525050565b600060608201905062001011600083018662000fe9565b62001020602083018562000d49565b6200102f604083018462000d49565b949350505050565b7f4e487b7100000000000000000000000000000000000000000000000000000000600052601160045260246000fd5b600062001073826200097a565b91507fffffffffffffffffffffffffffffffffffffffffffffffffffffffffffffffff8203620010a857620010a762001037565b5b600182019050919050565b7f4e487b7100000000000000000000000000000000000000000000000000000000600052602260045260246000fd5b60006002820490506001821680620010fb57607f821691505b602082108103620011115762001110620010b3565b5b5091905056fe608060405234801561001057600080fd5b5060405161077238038061077283398181016040528101906100329190610134565b816000819055508060028190555082600360006101000a81548173ffffffffffffffffffffffffffffffffffffffff021916908373ffffffffffffffffffffffffffffffffffffffff160217905550505050610187565b600080fd5b600073ffffffffffffffffffffffffffffffffffffffff82169050919050565b60006100b98261008e565b9050919050565b60006100cb826100ae565b9050919050565b6100db816100c0565b81146100e657600080fd5b50565b6000815190506100f8816100d2565b92915050565b6000819050919050565b610111816100fe565b811461011c57600080fd5b50565b60008151905061012e81610108565b92915050565b60008060006060848603121561014d5761014c610089565b5b600061015b868287016100e9565b935050602061016c8682870161011f565b925050604061017d8682870161011f565b9150509250925092565b6105dc806101966000396000f3fe6080604052600436106100385760003560e01c80632986c0e51461024e5780633c8da5881461027957806389794d00146102a457610240565b3661024057600060015414610082576040517f08c379a00000000000000000000000000000000000000000000000000000000081526004016100799061033e565b60405180910390fd5b34600154146100c6576040517f08c379a00000000000000000000000000000000000000000000000000000000081526004016100bd906103aa565b60405180910390fd5b34600160008282546100d89190610403565b925050819055506000600360009054906101000a900473ffffffffffffffffffffffffffffffffffffffff1673ffffffffffffffffffffffffffffffffffffffff163460025460405160240161012e9190610468565b6040516020818303038152906040527f800fb83f000000000000000000000000000000000000000000000000000000007bffffffffffffffffffffffffffffffffffffffffffffffffffffffff19166020820180517bffffffffffffffffffffffffffffffffffffffffffffffffffffffff83818316178352505050506040516101b891906104fd565b60006040518083038185875af1925050503d80600081146101f5576040519150601f19603f3d011682016040523d82523d6000602084013e6101fa565b606091505b505090508061023e576040517f08c379a000000000000000000000000000000000000000000000000000000000815260040161023590610586565b60405180910390fd5b005b34801561024c57600080fd5b005b34801561025a57600080fd5b506102636102cf565b6040516102709190610468565b60405180910390f35b34801561028557600080fd5b5061028e6102d5565b60405161029b9190610468565b60405180910390f35b3480156102b057600080fd5b506102b96102db565b6040516102c69190610468565b60405180910390f35b60025481565b60005481565b60015481565b600082825260208201905092915050565b7f4974656d206973207061696420616c7265616479000000000000000000000000600082015250565b60006103286014836102e1565b9150610333826102f2565b602082019050919050565b600060208201905081810360008301526103578161031b565b9050919050565b7f4f6e6c792066756c6c207061796d656e747320616c6c6f776564000000000000600082015250565b6000610394601a836102e1565b915061039f8261035e565b602082019050919050565b600060208201905081810360008301526103c381610387565b9050919050565b6000819050919050565b7f4e487b7100000000000000000000000000000000000000000000000000000000600052601160045260246000fd5b600061040e826103ca565b9150610419836103ca565b9250827fffffffffffffffffffffffffffffffffffffffffffffffffffffffffffffffff0382111561044e5761044d6103d4565b5b828201905092915050565b610462816103ca565b82525050565b600060208201905061047d6000830184610459565b92915050565b600081519050919050565b600081905092915050565b60005b838110156104b757808201518184015260208101905061049c565b838111156104c6576000848401525b50505050565b60006104d782610483565b6104e1818561048e565b93506104f1818560208601610499565b80840191505092915050565b600061050982846104cc565b915081905092915050565b7f546865207472616e73616374696f6e207761736e27742073756363657373667560008201527f6c2c2063616e63656c696e670000000000000000000000000000000000000000602082015250565b6000610570602c836102e1565b915061057b82610514565b604082019050919050565b6000602082019050818103600083015261059f81610563565b905091905056fea264697066735822122079e547e26faa74314d69a9fc519518ccd1db915b780e95ab9a8697e3b7cedc4064736f6c634300080d0033a264697066735822122048f028449a97adb10a10e6960238f90e5e2eb09df158dce06dc6f87523a6885664736f6c634300080d0033",
  "immutableReferences": {},
  "source": "//SPDX-License-Identifier: MIT\r\npragma solidity ^0.8.13;\r\n\r\nimport \"./Ownable.sol\";\r\nimport \"./Item.sol\";\r\n\r\ncontract ItemManager is Ownable{\r\n\r\n    enum SupplyChainState{Created, Paid, Delivered}\r\n\r\n    struct S_Item {\r\n        Item _item;\r\n        string _identifier;\r\n        uint _itemPrice;\r\n        ItemManager.SupplyChainState _state;\r\n    }\r\n\r\n    mapping(uint => S_Item) public items;\r\n    uint itemIndex;\r\n\r\n    event SupplyChainStep(uint _itemIndex, uint _step, address _itemAddress);\r\n\r\n    function createItem(string memory _identifier, uint _itemPrice) public onlyOwner{\r\n        Item item = new Item(this, _itemPrice, itemIndex);\r\n        items[itemIndex]._item = item;\r\n        items[itemIndex]._identifier = _identifier;\r\n        items[itemIndex]._itemPrice = _itemPrice;\r\n        items[itemIndex]._state = SupplyChainState.Created;\r\n        emit SupplyChainStep(itemIndex, uint(items[itemIndex]._state), address(item));\r\n        itemIndex++;\r\n    }\r\n\r\n    function triggerPayment(uint _itemIndex) public payable {\r\n        require(items[_itemIndex]._itemPrice == msg.value, \"Only full payments accepted\");\r\n        require(items[_itemIndex]._state == SupplyChainState.Created, \"Item is further in the chain\");\r\n        items[_itemIndex]._state = SupplyChainState.Paid;\r\n        emit SupplyChainStep(_itemIndex, uint(items[itemIndex]._state), address(items[_itemIndex]._item));\r\n    }\r\n\r\n    function triggerDelivery(uint _itemIndex) public onlyOwner{\r\n        require(items[_itemIndex]._state == SupplyChainState.Paid, \"Item is further in the chain\");\r\n        items[_itemIndex]._state = SupplyChainState.Delivered;\r\n        emit SupplyChainStep(_itemIndex, uint(items[_itemIndex]._state), address(items[_itemIndex]._item));\r\n    }\r\n}",
  "sourcePath": "C:\\Users\\Maximiliano Gadea\\OneDrive - Hexagon Consulting S.R.L\\Escritorio\\SideProyects\\truffle box react\\contracts\\ItemManager.sol",
  "compiler": {
    "name": "solc",
    "version": "0.8.13+commit.abaa5c0e.Emscripten.clang"
  },
  "schemaVersion": "3.4.6",
  "updatedAt": "2022-04-03T21:56:23.381Z",
  "networkType": "ethereum",
  "devdoc": {
    "kind": "dev",
    "methods": {},
    "version": 1
  },
  "userdoc": {
    "kind": "user",
    "methods": {},
    "version": 1
  }
}